{
  "contractName": "Land_Contract",
  "abi": [
    {
      "inputs": [],
      "name": "landArea",
      "outputs": [
        {
          "internalType": "string",
          "name": "",
          "type": "string"
        }
      ],
      "stateMutability": "view",
      "type": "function",
      "constant": true
    },
    {
      "inputs": [],
      "name": "landJuris",
      "outputs": [
        {
          "internalType": "string",
          "name": "",
          "type": "string"
        }
      ],
      "stateMutability": "view",
      "type": "function",
      "constant": true
    },
    {
      "inputs": [],
      "name": "landLocation",
      "outputs": [
        {
          "internalType": "string",
          "name": "",
          "type": "string"
        }
      ],
      "stateMutability": "view",
      "type": "function",
      "constant": true
    },
    {
      "inputs": [],
      "name": "landOwner",
      "outputs": [
        {
          "internalType": "string",
          "name": "",
          "type": "string"
        }
      ],
      "stateMutability": "view",
      "type": "function",
      "constant": true
    },
    {
      "inputs": [],
      "name": "landSurvey",
      "outputs": [
        {
          "internalType": "string",
          "name": "",
          "type": "string"
        }
      ],
      "stateMutability": "view",
      "type": "function",
      "constant": true
    },
    {
      "inputs": [
        {
          "internalType": "string",
          "name": "newLandSurvey",
          "type": "string"
        },
        {
          "internalType": "string",
          "name": "newLandOwner",
          "type": "string"
        },
        {
          "internalType": "string",
          "name": "newLandArea",
          "type": "string"
        },
        {
          "internalType": "string",
          "name": "newLandLocation",
          "type": "string"
        },
        {
          "internalType": "string",
          "name": "newLandJuris",
          "type": "string"
        }
      ],
      "name": "setLand",
      "outputs": [],
      "stateMutability": "nonpayable",
      "type": "function"
    },
    {
      "inputs": [],
      "name": "getLand",
      "outputs": [
        {
          "internalType": "string",
          "name": "",
          "type": "string"
        },
        {
          "internalType": "string",
          "name": "",
          "type": "string"
        },
        {
          "internalType": "string",
          "name": "",
          "type": "string"
        },
        {
          "internalType": "string",
          "name": "",
          "type": "string"
        },
        {
          "internalType": "string",
          "name": "",
          "type": "string"
        }
      ],
      "stateMutability": "view",
      "type": "function",
      "constant": true
    }
  ],
  "bytecode": "0x608060405234801561001057600080fd5b50610df1806100206000396000f3fe608060405234801561001057600080fd5b506004361061007d5760003560e01c80639c70fe061161005b5780639c70fe06146100e0578063b6e8d5e5146100fe578063e71d1e191461011c578063fa4238f5146101385761007d565b80635690314c14610082578063636ffa11146100a45780636b33228d146100c2575b600080fd5b61008a610156565b60405161009b9594939291906107eb565b60405180910390f35b6100ac610435565b6040516100b99190610861565b60405180910390f35b6100ca6104c3565b6040516100d79190610861565b60405180910390f35b6100e8610551565b6040516100f59190610861565b60405180910390f35b6101066105df565b6040516101139190610861565b60405180910390f35b610136600480360381019061013191906109cc565b61066d565b005b6101406106c4565b60405161014d9190610861565b60405180910390f35b60608060608060606000600160026003600484805461017490610b02565b80601f01602080910402602001604051908101604052809291908181526020018280546101a090610b02565b80156101ed5780601f106101c2576101008083540402835291602001916101ed565b820191906000526020600020905b8154815290600101906020018083116101d057829003601f168201915b5050505050945083805461020090610b02565b80601f016020809104026020016040519081016040528092919081815260200182805461022c90610b02565b80156102795780601f1061024e57610100808354040283529160200191610279565b820191906000526020600020905b81548152906001019060200180831161025c57829003601f168201915b5050505050935082805461028c90610b02565b80601f01602080910402602001604051908101604052809291908181526020018280546102b890610b02565b80156103055780601f106102da57610100808354040283529160200191610305565b820191906000526020600020905b8154815290600101906020018083116102e857829003601f168201915b5050505050925081805461031890610b02565b80601f016020809104026020016040519081016040528092919081815260200182805461034490610b02565b80156103915780601f1061036657610100808354040283529160200191610391565b820191906000526020600020905b81548152906001019060200180831161037457829003601f168201915b505050505091508080546103a490610b02565b80601f01602080910402602001604051908101604052809291908181526020018280546103d090610b02565b801561041d5780601f106103f25761010080835404028352916020019161041d565b820191906000526020600020905b81548152906001019060200180831161040057829003601f168201915b50505050509050945094509450945094509091929394565b6000805461044290610b02565b80601f016020809104026020016040519081016040528092919081815260200182805461046e90610b02565b80156104bb5780601f10610490576101008083540402835291602001916104bb565b820191906000526020600020905b81548152906001019060200180831161049e57829003601f168201915b505050505081565b600280546104d090610b02565b80601f01602080910402602001604051908101604052809291908181526020018280546104fc90610b02565b80156105495780601f1061051e57610100808354040283529160200191610549565b820191906000526020600020905b81548152906001019060200180831161052c57829003601f168201915b505050505081565b6003805461055e90610b02565b80601f016020809104026020016040519081016040528092919081815260200182805461058a90610b02565b80156105d75780601f106105ac576101008083540402835291602001916105d7565b820191906000526020600020905b8154815290600101906020018083116105ba57829003601f168201915b505050505081565b600180546105ec90610b02565b80601f016020809104026020016040519081016040528092919081815260200182805461061890610b02565b80156106655780601f1061063a57610100808354040283529160200191610665565b820191906000526020600020905b81548152906001019060200180831161064857829003601f168201915b505050505081565b846000908161067c9190610ce9565b50836001908161068c9190610ce9565b50826002908161069c9190610ce9565b5081600390816106ac9190610ce9565b5080600490816106bc9190610ce9565b505050505050565b600480546106d190610b02565b80601f01602080910402602001604051908101604052809291908181526020018280546106fd90610b02565b801561074a5780601f1061071f5761010080835404028352916020019161074a565b820191906000526020600020905b81548152906001019060200180831161072d57829003601f168201915b505050505081565b600081519050919050565b600082825260208201905092915050565b60005b8381101561078c578082015181840152602081019050610771565b8381111561079b576000848401525b50505050565b6000601f19601f8301169050919050565b60006107bd82610752565b6107c7818561075d565b93506107d781856020860161076e565b6107e0816107a1565b840191505092915050565b600060a082019050818103600083015261080581886107b2565b9050818103602083015261081981876107b2565b9050818103604083015261082d81866107b2565b9050818103606083015261084181856107b2565b9050818103608083015261085581846107b2565b90509695505050505050565b6000602082019050818103600083015261087b81846107b2565b905092915050565b6000604051905090565b600080fd5b600080fd5b600080fd5b600080fd5b7f4e487b7100000000000000000000000000000000000000000000000000000000600052604160045260246000fd5b6108d9826107a1565b810181811067ffffffffffffffff821117156108f8576108f76108a1565b5b80604052505050565b600061090b610883565b905061091782826108d0565b919050565b600067ffffffffffffffff821115610937576109366108a1565b5b610940826107a1565b9050602081019050919050565b82818337600083830152505050565b600061096f61096a8461091c565b610901565b90508281526020810184848401111561098b5761098a61089c565b5b61099684828561094d565b509392505050565b600082601f8301126109b3576109b2610897565b5b81356109c384826020860161095c565b91505092915050565b600080600080600060a086880312156109e8576109e761088d565b5b600086013567ffffffffffffffff811115610a0657610a05610892565b5b610a128882890161099e565b955050602086013567ffffffffffffffff811115610a3357610a32610892565b5b610a3f8882890161099e565b945050604086013567ffffffffffffffff811115610a6057610a5f610892565b5b610a6c8882890161099e565b935050606086013567ffffffffffffffff811115610a8d57610a8c610892565b5b610a998882890161099e565b925050608086013567ffffffffffffffff811115610aba57610ab9610892565b5b610ac68882890161099e565b9150509295509295909350565b7f4e487b7100000000000000000000000000000000000000000000000000000000600052602260045260246000fd5b60006002820490506001821680610b1a57607f821691505b602082108103610b2d57610b2c610ad3565b5b50919050565b60008190508160005260206000209050919050565b60006020601f8301049050919050565b600082821b905092915050565b600060088302610b957fffffffffffffffffffffffffffffffffffffffffffffffffffffffffffffffff82610b58565b610b9f8683610b58565b95508019841693508086168417925050509392505050565b6000819050919050565b6000819050919050565b6000610be6610be1610bdc84610bb7565b610bc1565b610bb7565b9050919050565b6000819050919050565b610c0083610bcb565b610c14610c0c82610bed565b848454610b65565b825550505050565b600090565b610c29610c1c565b610c34818484610bf7565b505050565b5b81811015610c5857610c4d600082610c21565b600181019050610c3a565b5050565b601f821115610c9d57610c6e81610b33565b610c7784610b48565b81016020851015610c86578190505b610c9a610c9285610b48565b830182610c39565b50505b505050565b600082821c905092915050565b6000610cc060001984600802610ca2565b1980831691505092915050565b6000610cd98383610caf565b9150826002028217905092915050565b610cf282610752565b67ffffffffffffffff811115610d0b57610d0a6108a1565b5b610d158254610b02565b610d20828285610c5c565b600060209050601f831160018114610d535760008415610d41578287015190505b610d4b8582610ccd565b865550610db3565b601f198416610d6186610b33565b60005b82811015610d8957848901518255600182019150602085019450602081019050610d64565b86831015610da65784890151610da2601f891682610caf565b8355505b6001600288020188555050505b50505050505056fea2646970667358221220ec45ef37023dae2874d2af573d55e6511cddadabc21e676fc1caef4089ac3eef64736f6c634300080f0033",
  "immutableReferences": {},
  "source": "// SPDX-License-Identifier: MIT\npragma solidity ^ 0.8.13;\n\n// 1. Creating a new land contract\ncontract Land_Contract{\n\n    // 2. Declaring our smart contract state variables\n    string public landSurvey;\n    string public landOwner;\n    string public landArea;\n    string public landLocation;\n    string public landJuris;\n\n    // 3. Creating a set land function\n   function setLand( \n       string memory newLandSurvey, \n       string memory newLandOwner, \n       string memory newLandArea,\n       string memory newLandLocation,\n       string memory newLandJuris\n    ) public {\n        landSurvey = newLandSurvey;\n        landOwner = newLandOwner;\n        landArea = newLandArea;\n        landLocation = newLandLocation;\n        landJuris = newLandJuris;\n    }\n\n    // 4. Creating a fetch land function\n    function getLand() public view returns (\n        string memory, \n        string memory, \n        string memory, \n        string memory,\n        string memory\n    ){\n        return (landSurvey, landOwner, landArea, landLocation, landJuris);\n    }\n}",
  "sourcePath": "/home/mukesh/Documents/Dapp/ElectionDapp/contracts/Land_Contract.sol",
  "compiler": {
    "name": "solc",
    "version": "0.8.15+commit.e14f2714.Emscripten.clang"
  },
  "schemaVersion": "3.4.8",
  "updatedAt": "2022-11-02T09:31:08.564Z",
  "networkType": "ethereum",
  "devdoc": {
    "kind": "dev",
    "methods": {},
    "version": 1
  },
  "userdoc": {
    "kind": "user",
    "methods": {},
    "version": 1
  }
}